{
  "contractName": "TechInsurance",
  "abi": [
    {
      "inputs": [],
      "stateMutability": "nonpayable",
      "type": "constructor"
    },
    {
      "inputs": [
        {
          "internalType": "address",
          "name": "",
          "type": "address"
        },
        {
          "internalType": "uint256",
          "name": "",
          "type": "uint256"
        }
      ],
      "name": "client",
      "outputs": [
        {
          "internalType": "bool",
          "name": "isValid",
          "type": "bool"
        },
        {
          "internalType": "uint256",
          "name": "time",
          "type": "uint256"
        }
      ],
      "stateMutability": "view",
      "type": "function",
      "constant": true
    },
    {
      "inputs": [],
      "name": "insOwner",
      "outputs": [
        {
          "internalType": "address",
          "name": "",
          "type": "address"
        }
      ],
      "stateMutability": "view",
      "type": "function",
      "constant": true
    },
    {
      "inputs": [
        {
          "internalType": "uint256",
          "name": "",
          "type": "uint256"
        }
      ],
      "name": "productIndex",
      "outputs": [
        {
          "internalType": "uint256",
          "name": "productId",
          "type": "uint256"
        },
        {
          "internalType": "string",
          "name": "productName",
          "type": "string"
        },
        {
          "internalType": "uint256",
          "name": "price",
          "type": "uint256"
        },
        {
          "internalType": "bool",
          "name": "offered",
          "type": "bool"
        }
      ],
      "stateMutability": "view",
      "type": "function",
      "constant": true
    },
    {
      "inputs": [],
      "name": "start",
      "outputs": [
        {
          "internalType": "uint256",
          "name": "",
          "type": "uint256"
        }
      ],
      "stateMutability": "view",
      "type": "function",
      "constant": true
    },
    {
      "inputs": [
        {
          "internalType": "address",
          "name": "to",
          "type": "address"
        },
        {
          "internalType": "uint256",
          "name": "_Id",
          "type": "uint256"
        }
      ],
      "name": "transferFrom",
      "outputs": [],
      "stateMutability": "nonpayable",
      "type": "function"
    },
    {
      "inputs": [
        {
          "internalType": "address",
          "name": "owner",
          "type": "address"
        }
      ],
      "name": "balanceOf",
      "outputs": [
        {
          "internalType": "uint256",
          "name": "",
          "type": "uint256"
        }
      ],
      "stateMutability": "view",
      "type": "function",
      "constant": true
    },
    {
      "inputs": [
        {
          "internalType": "uint256",
          "name": "_id",
          "type": "uint256"
        }
      ],
      "name": "ownerOf",
      "outputs": [
        {
          "internalType": "address",
          "name": "",
          "type": "address"
        }
      ],
      "stateMutability": "view",
      "type": "function",
      "constant": true
    },
    {
      "inputs": [
        {
          "internalType": "address",
          "name": "from",
          "type": "address"
        },
        {
          "internalType": "address",
          "name": "to",
          "type": "address"
        },
        {
          "internalType": "uint256",
          "name": "tokenId",
          "type": "uint256"
        }
      ],
      "name": "_transfer",
      "outputs": [],
      "stateMutability": "nonpayable",
      "type": "function"
    },
    {
      "inputs": [
        {
          "internalType": "uint256",
          "name": "_productId",
          "type": "uint256"
        },
        {
          "internalType": "string",
          "name": "_productName",
          "type": "string"
        },
        {
          "internalType": "uint256",
          "name": "_price",
          "type": "uint256"
        }
      ],
      "name": "addProduct",
      "outputs": [],
      "stateMutability": "nonpayable",
      "type": "function"
    },
    {
      "inputs": [
        {
          "internalType": "uint256",
          "name": "_Index",
          "type": "uint256"
        }
      ],
      "name": "changeFalse",
      "outputs": [],
      "stateMutability": "nonpayable",
      "type": "function"
    },
    {
      "inputs": [
        {
          "internalType": "uint256",
          "name": "_Index",
          "type": "uint256"
        }
      ],
      "name": "changeTrue",
      "outputs": [],
      "stateMutability": "nonpayable",
      "type": "function"
    },
    {
      "inputs": [
        {
          "internalType": "uint256",
          "name": "_productIndex",
          "type": "uint256"
        },
        {
          "internalType": "uint256",
          "name": "_price",
          "type": "uint256"
        }
      ],
      "name": "changePrice",
      "outputs": [],
      "stateMutability": "nonpayable",
      "type": "function"
    },
    {
      "inputs": [
        {
          "internalType": "uint256",
          "name": "_productIndex",
          "type": "uint256"
        }
      ],
      "name": "buyInsurance",
      "outputs": [],
      "stateMutability": "payable",
      "type": "function",
      "payable": true
    }
  ],
  "bytecode": "0x60806040524260065534801561001457600080fd5b5033600360006101000a81548173ffffffffffffffffffffffffffffffffffffffff021916908373ffffffffffffffffffffffffffffffffffffffff160217905550611023806100656000396000f3fe6080604052600436106100c25760003560e01c806376169baf1161007f578063af94549511610059578063af945495146104b8578063b3de019c14610530578063be9a655514610575578063cf80d867146105a0576100c2565b806376169baf1461040e5780639488d27214610449578063a86a658c1461048a576100c2565b806301c6adc3146100c757806330e0789e14610122578063322d5a331461019d5780634268ff2d146102685780636352211e1461034457806370a08231146103a9575b600080fd5b3480156100d357600080fd5b50610120600480360360408110156100ea57600080fd5b81019080803573ffffffffffffffffffffffffffffffffffffffff169060200190929190803590602001909291905050506105db565b005b34801561012e57600080fd5b5061019b6004803603606081101561014557600080fd5b81019080803573ffffffffffffffffffffffffffffffffffffffff169060200190929190803573ffffffffffffffffffffffffffffffffffffffff16906020019092919080359060200190929190505050610718565b005b3480156101a957600080fd5b506101d6600480360360208110156101c057600080fd5b8101908080359060200190929190505050610845565b60405180858152602001806020018481526020018315158152602001828103825285818151815260200191508051906020019080838360005b8381101561022a57808201518184015260208101905061020f565b50505050905090810190601f1680156102575780820380516001836020036101000a031916815260200191505b509550505050505060405180910390f35b34801561027457600080fd5b506103426004803603606081101561028b57600080fd5b8101908080359060200190929190803590602001906401000000008111156102b257600080fd5b8201836020820111156102c457600080fd5b803590602001918460018302840111640100000000831117156102e657600080fd5b91908080601f016020809104026020016040519081016040528093929190818152602001838380828437600081840152601f19601f8201169050808301925050505050505091929192908035906020019092919050505061091a565b005b34801561035057600080fd5b5061037d6004803603602081101561036757600080fd5b81019080803590602001909291905050506109d7565b604051808273ffffffffffffffffffffffffffffffffffffffff16815260200191505060405180910390f35b3480156103b557600080fd5b506103f8600480360360208110156103cc57600080fd5b81019080803573ffffffffffffffffffffffffffffffffffffffff169060200190929190505050610a86565b6040518082815260200191505060405180910390f35b34801561041a57600080fd5b506104476004803603602081101561043157600080fd5b8101908080359060200190929190505050610b08565b005b34801561045557600080fd5b5061045e610b39565b604051808273ffffffffffffffffffffffffffffffffffffffff16815260200191505060405180910390f35b6104b6600480360360208110156104a057600080fd5b8101908080359060200190929190505050610b5f565b005b3480156104c457600080fd5b50610511600480360360408110156104db57600080fd5b81019080803573ffffffffffffffffffffffffffffffffffffffff16906020019092919080359060200190929190505050610d6e565b6040518083151581526020018281526020019250505060405180910390f35b34801561053c57600080fd5b506105736004803603604081101561055357600080fd5b810190808035906020019092919080359060200190929190505050610dac565b005b34801561058157600080fd5b5061058a610e8d565b6040518082815260200191505060405180910390f35b3480156105ac57600080fd5b506105d9600480360360208110156105c357600080fd5b8101908080359060200190929190505050610e93565b005b8173ffffffffffffffffffffffffffffffffffffffff163373ffffffffffffffffffffffffffffffffffffffff161415610660576040517f08c379a0000000000000000000000000000000000000000000000000000000008152600401808060200182810382526025815260200180610fc96025913960400191505060405180910390fd5b3373ffffffffffffffffffffffffffffffffffffffff16610680826109d7565b73ffffffffffffffffffffffffffffffffffffffff1614610709576040517f08c379a00000000000000000000000000000000000000000000000000000000081526004018080602001828103825260148152602001807f20596f7572206e6f7420746865204f776e65722000000000000000000000000081525060200191505060405180910390fd5b610714338383610718565b5050565b600073ffffffffffffffffffffffffffffffffffffffff168273ffffffffffffffffffffffffffffffffffffffff16141561075257600080fd5b6001600460008573ffffffffffffffffffffffffffffffffffffffff1673ffffffffffffffffffffffffffffffffffffffff168152602001908152602001600020600082825403925050819055506001600460008473ffffffffffffffffffffffffffffffffffffffff1673ffffffffffffffffffffffffffffffffffffffff16815260200190815260200160002060008282540192505081905550816005600083815260200190815260200160002060006101000a81548173ffffffffffffffffffffffffffffffffffffffff021916908373ffffffffffffffffffffffffffffffffffffffff160217905550505050565b6000602052806000526040600020600091509050806000015490806001018054600181600116156101000203166002900480601f0160208091040260200160405190810160405280929190818152602001828054600181600116156101000203166002900480156108f75780601f106108cc576101008083540402835291602001916108f7565b820191906000526020600020905b8154815290600101906020018083116108da57829003601f168201915b5050505050908060020154908060030160009054906101000a900460ff16905084565b610922610ec4565b60405180608001604052808581526020018481526020018381526020016001151581525090508060008060026000815480929190600101919050558152602001908152602001600020600082015181600001556020820151816001019080519060200190610991929190610eee565b506040820151816002015560608201518160030160006101000a81548160ff02191690831515021790555090505060026000815480929190600101919050555050505050565b6000806005600084815260200190815260200160002060009054906101000a900473ffffffffffffffffffffffffffffffffffffffff169050600073ffffffffffffffffffffffffffffffffffffffff168173ffffffffffffffffffffffffffffffffffffffff161415610a4a57600080fd5b6005600084815260200190815260200160002060009054906101000a900473ffffffffffffffffffffffffffffffffffffffff16915050919050565b60008073ffffffffffffffffffffffffffffffffffffffff168273ffffffffffffffffffffffffffffffffffffffff161415610ac157600080fd5b600460008373ffffffffffffffffffffffffffffffffffffffff1673ffffffffffffffffffffffffffffffffffffffff168152602001908152602001600020549050919050565b600080600083815260200190815260200160002060030160006101000a81548160ff02191690831515021790555050565b600360009054906101000a900473ffffffffffffffffffffffffffffffffffffffff1681565b6001151560008083815260200190815260200160002060030160009054906101000a900460ff16151514610bfb576040517f08c379a000000000000000000000000000000000000000000000000000000000815260040180806020018281038252601a8152602001807f54686120496e737572616e636520697320617661696c61626c6500000000000081525060200191505060405180910390fd5b600080828152602001908152602001600020600201543414610c68576040517f08c379a0000000000000000000000000000000000000000000000000000000008152600401808060200182810382526021815260200180610fa86021913960400191505060405180910390fd5b610c70610f6e565b604051806040016040528060011515815260200142815250905080600160003373ffffffffffffffffffffffffffffffffffffffff1673ffffffffffffffffffffffffffffffffffffffff168152602001908152602001600020600084815260200190815260200160002060008201518160000160006101000a81548160ff0219169083151502179055506020820151816001015590505060008060008481526020019081526020016000206002015490503373ffffffffffffffffffffffffffffffffffffffff166108fc829081150290604051600060405180830381858888f19350505050158015610d68573d6000803e3d6000fd5b50505050565b6001602052816000526040600020602052806000526040600020600091509150508060000160009054906101000a900460ff16908060010154905082565b3373ffffffffffffffffffffffffffffffffffffffff16600360009054906101000a900473ffffffffffffffffffffffffffffffffffffffff1673ffffffffffffffffffffffffffffffffffffffff1614610e6f576040517f08c379a00000000000000000000000000000000000000000000000000000000081526004018080602001828103825260158152602001807f796f7520617265206e6f7420746865206f776e6572000000000000000000000081525060200191505060405180910390fd5b80600080848152602001908152602001600020600201819055505050565b60065481565b600160008083815260200190815260200160002060030160006101000a81548160ff02191690831515021790555050565b60405180608001604052806000815260200160608152602001600081526020016000151581525090565b828054600181600116156101000203166002900490600052602060002090601f016020900481019282601f10610f2f57805160ff1916838001178555610f5d565b82800160010185558215610f5d579182015b82811115610f5c578251825591602001919060010190610f41565b5b509050610f6a9190610f8a565b5090565b6040518060400160405280600015158152602001600081525090565b5b80821115610fa3576000816000905550600101610f8b565b509056fe636865636b2074686520616d6f756e74206f662074686520496e737572616e636520596f752061726520746865206f776e6572206f66207468697320496e737572616e636520a26469706673582212201c805e14a6a1dadbdbd59857e42cdfcca0a0a328e396d3acebe4dc40b4d0d45564736f6c63430007000033",
  "immutableReferences": {},
  "source": "//SPDX-License-Identifier: MIT\r\npragma solidity ^0.7.0;\r\n\r\n//import \"https://github.com/OpenZeppelin/openzeppelin-contracts/blob/master/contracts/token/ERC721/ERC721.sol\";\r\n\r\n/**\r\n * @title Tech Insurance tor\r\n * @dev complete the functions\r\n */\r\n \r\ncontract TechInsurance {  //is ERC721(\"Tahani\", \"CryptoNinja\") \r\n    /** \r\n     * Define two structs\r\n     * \r\n     * \r\n     */\r\n    struct Product {\r\n        uint productId;\r\n        string productName;\r\n        uint price;\r\n        bool offered;\r\n    }\r\n    struct Client {\r\n        bool isValid;\r\n        uint time;\r\n    }\r\n    \r\n    mapping(uint => Product) public productIndex;\r\n    mapping(address => mapping(uint => Client)) public client;\r\n    \r\n    uint productCounter;\r\n    \r\n    address public insOwner;\r\n    \r\n    \r\n    mapping(address => uint256)private _balances;\r\n    mapping (uint256 => address) private _owners;\r\n    \r\n    \r\n    //event transfer(address from, address to, uint tokenId);\r\n    \r\n    function transferFrom(address to, uint256 _Id) public{\r\n       require(msg.sender != to,\" You are the owner of this Insurance \");\r\n       require(ownerOf(_Id) == msg.sender,\" Your not the Owner \");\r\n       _transfer(msg.sender, to, _Id);\r\n\r\n    }\r\n    \r\n   function balanceOf(address owner)public view returns(uint256){\r\n         require(owner != address(0));\r\n         return _balances[owner];\r\n     }\r\n     \r\n     function ownerOf(uint256 _id)public view returns(address){\r\n         address owner = _owners[_id];\r\n         require(owner != address(0));\r\n         return _owners[_id];\r\n     }\r\n     \r\n     \r\n     function _transfer(address from, address to, uint256 tokenId) public {\r\n        require(to != address(0));\r\n\r\n        _balances[from] -= 1;\r\n        _balances[to] += 1;\r\n        _owners[tokenId] = to;\r\n    }\r\n    \r\n    \r\n    constructor() public{\r\n        insOwner = msg.sender;\r\n    }\r\n    \r\n    function addProduct(uint _productId, string memory _productName, uint _price ) public {\r\n        Product memory newproduct = Product(_productId, _productName, _price, true);\r\n        productIndex [productCounter++] = newproduct;\r\n        productCounter++;\r\n    }\r\n    \r\n    function changeFalse(uint _Index) public {\r\n     productIndex[_Index].offered = false;\r\n    }\r\n    \r\n    function changeTrue(uint _Index) public {\r\n        productIndex[_Index].offered = true;\r\n    }\r\n    \r\n    modifier change_Price(){\r\n        require(insOwner == msg.sender, \"you are not the owner\");\r\n        _;\r\n    }\r\n\r\n    function changePrice(uint _productIndex, uint _price) public change_Price { //inherit modifier \r\n       productIndex[_productIndex].price = _price;\r\n    }\r\n        \r\n    uint256 public start = block.timestamp ;\r\n    \r\n    function buyInsurance( uint _productIndex) public payable{ //uint dayAfter\r\n        require(productIndex[_productIndex].offered == true, \"Tha Insurance is available\");\r\n        require(msg.value  == productIndex[_productIndex].price, \"check the amount of the Insurance\");\r\n        \r\n        Client memory newClient = Client (true, block.timestamp);\r\n        client[msg.sender][_productIndex] =   newClient ;\r\n        uint256 price = productIndex[_productIndex].price;\r\n        payable(msg.sender).transfer(price);\r\n        \r\n       \r\n    } \r\n    \r\n    \r\n}",
  "sourcePath": "C:/Users/soso-/Documents/week6/webpackTest2/contracts/TechInsurance.sol",
  "compiler": {
    "name": "solc",
    "version": "0.7.0+commit.9e61f92b.Emscripten.clang"
  },
  "schemaVersion": "3.3.4",
  "updatedAt": "2021-03-15T12:47:33.444Z",
  "networkType": "ethereum",
  "devdoc": {
    "details": "complete the functions",
    "kind": "dev",
    "methods": {},
    "title": "Tech Insurance tor",
    "version": 1
  },
  "userdoc": {
    "kind": "user",
    "methods": {},
    "version": 1
  }
}